:020000000528D1
:06000A005C2035281930CE
:10001000A200A20B0928A3180E280F28A013A418C9
:10002000122813282013200886001930A200A20BE2
:10003000172823191C281D28A0132419202821283B
:100040002013200886001930A200A20B2528A3192E
:100050002A282B28A013A4192E282F282013200883
:1000600086001530A200A20B33280508A100210844
:10007000031D3C2886013528A301A401211843282B
:10008000A11846286E28A11849284C28211D4F2860
:100090006E28211955285228A314A4145728231573
:1000A00024155728A315A415572823162416A0177E
:1000B0002017200886000728831285018601810108
:1000C0008316FF308500003086005F308100831288
:0E00D000A0018601A301A401061408006E28F9
:02400E00F23F7F
:00000001FF
